:100000000C9424010C9445010C9445010C94450179
:100010000C9445010C9445010C9445010C94450148
:100020000C9445010C9445010C9445010C94450138
:100030000C9445010C9445010C9445010C94450128
:100040000C9445010C9445010C9445010C94450118
:100050000C9445010C9445010C9445010C94F90253
:100060000C9445010C9445010C9445010C944501F8
:100070000C9445010C9445010C9445010C944501E8
:100080000C9445010C9445010C9445010C944501D8
:100090000C9445010C9445010C9445010C944501C8
:1000A0000C9445010C9445010C9445010C944501B8
:1000B0000C9445010C9445010C9445010C944501A8
:1000C0000C9445010C9445010C9445010C94450198
:1000D0000C9445010C9445010C9445010C94450188
:1000E0000C9445010C9485010C9481010C94BB0186
:1000F0000C94B2010C947B010C94B6010C94A001F9
:100100000C94C0010C94A4010C9496010C948D01E4
:100110000C94BC010C94AE010C9489010C949A01CE
:100120000C9490010C94A8010000210024002700E9
:100130002A002D00300033000101000004010701F6
:100140000A0100002200250028002B002E003100AB
:10015000340002010000050108010B01000020002D
:100160002300260029002C002F003200000100008F
:10017000030106010901050505050705080808082A
:10018000020202020A0A080804040404010101012F
:10019000010101010303030303030303040707072A
:1001A0000C0C0C0C0C0C0C0C0202020206060606CF
:1001B000060606060B0B0B0B0B0B0B0B010210209C
:1001C000200808102040102040800201020108048D
:1001D0000201010204081020408080402010080421
:1001E000020180040201804020100804020108047A
:1001F00002010102040810204080010204081020BE
:10020000408000000A0B02090C0D0E0807030401D0
:1002100000000000000000000000000000000000DE
:1002200000000000000000000000000000001211AB
:1002300010000000000000000000000000000000AE
:10024000000000000000000011241FBECFEFD1E22B
:10025000DEBFCDBF00E00CBF12E0A0E0B2E0EAECF0
:10026000FBE000E00BBF02C007900D92A831B10780
:10027000D9F722E0A8E1B2E001C01D92A132B20795
:10028000E1F70E9443030C94E3050C940000809175
:100290007B00877F80937B0080E480937C0080914B
:1002A0007A00806480937A0080917A0086FDFCCF8A
:1002B000809178009091790008958150823108F002
:1002C0005AC0E82FF0E08827E759FE4F8F4F0C9473
:1002D000C70589018D017B0181018501BB01900169
:1002E00096019A01A001A401A801AE01B201BB01CF
:1002F000B601BC01C001809180008F77809380009F
:100300000895809180008F7DF9CF80918000877F54
:10031000F5CF84B58F7784BD089584B58F7DFBCFED
:100320008091B0008F778093B00008958091B000E5
:100330008F7DF9CF809190008F7780939000089502
:10034000809190008F7DF9CF80919000877FF5CFCD
:100350008091A0008F778093A00008958091A000E5
:100360008F7DF9CF8091A000877FF5CF809120010C
:100370008F77809320010895809120018F7DF9CFA0
:1003800080912001877FF5CFCF93DF93282F30E036
:10039000F901EE5FFD4F8491F901E454FE4FD491D1
:1003A000F901EA58FE4FC491CC23A1F081110E94BB
:1003B0005D01EC2FF0E0EE0FFF1FE45AFE4FA59118
:1003C000B491EC91ED2381E090E009F480E0DF91BD
:1003D000CF91089580E090E0FACF1F93CF93DF9301
:1003E000282F30E0F901EE5FFD4F8491F901E454CC
:1003F000FE4FD491F901EA58FE4FC491CC23A9F0E5
:10040000162F81110E945D01EC2FF0E0EE0FFF1F0F
:10041000EE5BFE4FA591B4918FB7F894EC9111115A
:1004200008C0D095DE23DC938FBFDF91CF911F9161
:100430000895DE2BF8CFCF93DF9390E0FC01E454D6
:10044000FE4F24918A589E4FFC0184918823D1F05D
:1004500090E0880F991FFC01E85DFE4FA591B491D3
:10046000FC01EE5BFE4FC591D49161110EC09FB7A8
:10047000F8948C91E22FE0958E238C932881E223CF
:10048000E8839FBFDF91CF9108958FB7F894EC91E7
:10049000E22BEC938FBFF6CF3FB7F89480911D020B
:1004A00090911E02A0911F02B091200226B5A89B38
:1004B00005C02F3F19F00196A11DB11D3FBFBA2FF6
:1004C000A92F982F8827BC01CD01620F711D811DB6
:1004D000911D42E0660F771F881F991F4A95D1F73B
:1004E00008958F929F92AF92BF92CF92DF92EF9238
:1004F000FF924B015C010E944C026B017C010E9447
:100500004C026C197D098E099F09683E7340810574
:100510009105A8F321E0821A9108A108B10888EE9C
:10052000C80E83E0D81EE11CF11C81149104A104C3
:10053000B10429F7FF90EF90DF90CF90BF90AF907C
:100540009F908F900895EF92FF920F931F93CF93F8
:10055000DF9380509E4FFC01E0808B01D0E0C0E033
:10056000F12CB7010C2E02C0759567950A94E2F73D
:100570006170F80181918F010E94ED012196C730D1
:10058000D10579F7DF91CF911F910F91FF90EF90F7
:100590000895CF93DF93EC0160E082E00E94ED01CB
:1005A00061E083E00E94ED01CE016AE070E00E940C
:1005B000B305EB0161E172E00E94A30265E070E027
:1005C00080E090E00E94710261E082E00E94ED0113
:1005D00060E083E00E94ED016AE072E0CE010E94DB
:1005E000A30265E070E080E090E0DF91CF910C9491
:1005F00071021F920F920FB60F9211242F933F9307
:100600008F939F93AF93BF938091190290911A0299
:10061000A0911B02B0911C023091180223E0230F1D
:100620002D3758F50196A11DB11D20931802809316
:10063000190290931A02A0931B02B0931C0280919E
:100640001D0290911E02A0911F02B09120020196FE
:10065000A11DB11D80931D0290931E02A0931F0245
:10066000B0932002BF91AF919F918F913F912F91B5
:100670000F900FBE0F901F90189526E8230F02963B
:10068000A11DB11DD2CF789484B5826084BD84B59C
:10069000816084BD85B5826085BD85B5816085BD7D
:1006A00080916E00816080936E0010928100809135
:1006B00081008260809381008091810081608093BD
:1006C0008100809180008160809380008091B100E2
:1006D00084608093B1008091B00081608093B0000D
:1006E000809191008260809391008091910081605F
:1006F0008093910080919000816080939000809120
:10070000A10082608093A1008091A100816080930C
:10071000A1008091A00081608093A00080912101C0
:100720008260809321018091210181608093210169
:100730008091200181608093200180917A00846003
:1007400080937A0080917A00826080937A00809111
:100750007A00816080937A0080917A00806880932B
:100760007A001092C10060E081E00E941B0260E00C
:1007700086E30E941B0261E08AE00E941B0261E0A6
:100780008BE00E941B0261E086E00E941B0261E098
:1007900087E00E941B0261E088E00E941B0261E08A
:1007A00089E00E941B0261E08CE00E941B02C1E113
:1007B000D2E00AE012E061E089910E941B0261E050
:1007C000F80181918F010E941B02F2E0C831DF071E
:1007D00091F7C0E0D0E081E00E94C401019709F0E8
:1007E0008BC061E08BE00E94ED0161E086E00E9439
:1007F000ED0161E087E00E94ED0161E088E00E9488
:10080000ED0187E30E94C40161E0892B09F060E0FB
:100810008AE00E94ED0188E30E94C401019721F45F
:1008200060E086E00E94ED0189E30E94C401019727
:1008300021F460E087E00E94ED018AE30E94C40198
:100840000197F9F660E088E00E94ED010E944701FF
:10085000BC01990F880B990B0E94BA042AE038E278
:1008600040EA5BE30E941E0520E030E048EC52E4E1
:100870000E941E050E9482048B01CB010E94C902C6
:1008800061E08CE00E94ED0107341105DCF40E9468
:100890004701BC01990F880B990B0E94BA042AE00A
:1008A00038E240EA5BE30E941E0520E030E048ECBD
:1008B00052E40E941E050E9482048B01CB010E941B
:1008C000C902E2CF60E08CE00E94ED0161E089E0C6
:1008D0000E94ED0164EF71E080E090E00E947102FF
:1008E00060E089E00E94ED0160E08BE00E94ED0194
:1008F00090E080E00E94C902209709F46CCF0E942A
:10090000000069CF0E9489046894B1110C94180505
:1009100008950E94FD0488F09F5798F0B92F9927F9
:10092000B751B0F0E1F0660F771F881F991F1AF0DA
:10093000BA95C9F714C0B13091F00E941705B1E023
:1009400008950C941705672F782F8827B85F39F022
:10095000B93FCCF3869577956795B395D9F73EF473
:1009600090958095709561957F4F8F4F9F4F08951B
:10097000E89409C097FB3EF4909580957095619539
:100980007F4F8F4F9F4F9923A9F0F92F96E9BB27EF
:100990009395F695879577956795B795F111F8CF6B
:1009A000FAF4BB0F11F460FF1BC06F5F7F4F8F4FD6
:1009B0009F4F16C0882311F096E911C0772321F0CC
:1009C0009EE8872F762F05C0662371F096E8862F64
:1009D00070E060E02AF09A95660F771F881FDAF7BB
:1009E000880F9695879597F9089557FD9058440F6D
:1009F000551F59F05F3F71F04795880F97FB991F7E
:100A000061F09F3F79F0879508951216130614063A
:100A1000551FF2CF4695F1DF08C0161617061806C7
:100A2000991FF1CF86957105610508940895E894A2
:100A3000BB2766277727CB0197F908950E943105D8
:100A40000C94A2050E94940538F00E949B0520F0AA
:100A5000952311F00C948B050C94910511240C94A2
:100A600018050E94F50470F3959FC1F3950F50E0AF
:100A7000551F629FF001729FBB27F00DB11D639F50
:100A8000AA27F00DB11DAA1F649F6627B00DA11DF6
:100A9000661F829F2227B00DA11D621F739FB00D9C
:100AA000A11D621F839FA00D611D221F749F33270C
:100AB000A00D611D231F849F600D211D822F762FA5
:100AC0006A2F11249F5750409AF0F1F088234AF082
:100AD000EE0FFF1FBB1F661F771F881F91505040EE
:100AE000A9F79E3F510580F00C948B050C941805D6
:100AF0005F3FE4F3983ED4F3869577956795B79575
:100B0000F795E7959F5FC1F7FE2B880F911D96958E
:100B1000879597F9089597F99F6780E870E060E0FE
:100B200008959FEF80EC089500240A941616170686
:100B300018060906089500240A94121613061406CE
:100B400005060895092E0394000C11F4882352F031
:100B5000BB0F40F4BF2B11F460FF04C06F5F7F4FE9
:100B60008F4F9F4F089597FB072E16F4009407D0E0
:100B700077FD09D00E94CF0507FC05D03EF4909583
:100B800081959F4F0895709561957F4F0895EE0F61
:100B9000FF1F881F8BBF0790F691E02D1994AA1BA9
:100BA000BB1B51E107C0AA1FBB1FA617B70710F058
:100BB000A61BB70B881F991F5A95A9F7809590958A
:0A0BC000BC01CD010895F894FFCFA9
:100BCA003F065B4F666D7D077F6F2527292B2D2FEB
:080BDA003117191B1D1F212317
:00000001FF
